S01E0000726F73696C335F7765656B31305F68775F54696D65722E73726563A0
S113000045C0000072C00000A8C000004FC000003E
S11300104DC000004BC0000049C0000047C00000B4
S113002045C0000043C0000042C000003FC00000C3
S11300303DC000003BC0000039C0000037C00000D4
S113004035C0000033C0000031C000002FC00000E4
S11300502DC000002BC0000029C0000027C00000F4
S113006025C0000023C0000021C000001FC0000004
S11300701DC000001BC0000019C0000017C0000014
S113008015C0000013C0000011C0000011241FBEE1
S1130090CFEFD0E1DEBFCDBF21E0A0E0B1E001C0F1
S11300A01D92A630B207E1F790D0DBC1A9CF1F9211
S11300B00F920FB60F9211248F939F93F8941BBA4B
S11300C080E288BB80910401909105019BBD8ABDAB
S11300D08FEF8BBB18BA83E684BD78949F918F9180
S11300E00F900FBE0F901F9018951F920F920FB68E
S11300F00F9211240BB60F922F933F934F935F935C
S11301006F937F938F939F93AF93BF93EF93FF93DB
S11301102DEC3CEC4CEC5CE360910001709101012E
S1130120809102019091030111D17ED07093050159
S113013060930401FF91EF91BF91AF919F918F91D3
S11301407F916F915F914F913F912F910F900BBED3
S11301500F900FBE0F901F9018951F920F920FB61D
S11301600F9211240BB60F922F933F934F935F93EB
S11301706F937F938F939F93AF93BF93EF93FF936B
S113018020E030E040E05EE3609100017091010105
S11301908091020190910301D9D046D0709305015A
S11301A060930401FF91EF91BF91AF919F918F9163
S11301B07F916F915F914F913F912F910F900BBE63
S11301C00F900FBE0F901F90189580E287BB8FEFA2
S11301D08ABB11BA83E089BF8AE080936A0082E80F
S11301E08FBD8AE18EBD10927A008DE685BD80E4D4
S11301F087BF83E684BD80E49CE997BD86BD66B570
S113020077B580E090E03CD06093000170930101E9
S1130210809302019093030188EB9BE09093050186
S1130220809304017894FFCF70D088F09F5790F0AA
S1130230B92F9927B751A0F0D1F0660F771F881F07
S1130240991F1AF0BA95C9F712C0B13081F077D06E
S1130250B1E0089574C0672F782F8827B85F39F00C
S1130260B93FCCF3869577956795B395D9F73EF466
S113027090958095709561957F4F8F4F9F4F08950E
S1130280E89409C097FB3EF490958095709561952C
S11302907F4F8F4F9F4F9923A9F0F92F96E9BB27E2
S11302A09395F695879577956795B795F111F8CF5E
S11302B0FAF4BB0F11F460FF1BC06F5F7F4F8F4FC9
S11302C09F4F16C0882311F096E911C0772321F0BF
S11302D09EE8872F762F05C0662371F096E8862F57
S11302E070E060E02AF09A95660F771F881FDAF7AE
S11302F0880F9695879597F9089557FD9058440F60
S1130300551F59F05F3F71F04795880F97FB991F70
S113031061F09F3F79F0879508951216130614062D
S1130320551FF2CF4695F1DF08C0161617061806BA
S1130330991FF1CF86957105610508940895E89495
S1130340BB2766277727CB0197F908950BD078C090
S113035069D028F06ED018F0952309F05AC05FC018
S11303601124EECFCADFA0F3959FD1F3950F50E08F
S1130370551F629FF001729FBB27F00DB11D639F53
S1130380AA27F00DB11DAA1F649F6627B00DA11DF9
S1130390661F829F2227B00DA11D621F739FB00D9F
S11303A0A11D621F839FA00D611D221F749F33270F
S11303B0A00D611D231F849F600D211D822F762FA8
S11303C06A2F11249F5750408AF0E1F088234AF0A5
S11303D0EE0FFF1FBB1F661F771F881F91505040F1
S11303E0A9F79E3F510570F014C0AACF5F3FECF30C
S11303F0983EDCF3869577956795B795F795E795DD
S11304009F5FC1F7FE2B880F911D9695879597F9ED
S1130410089597F99F6780E870E060E008959FEF82
S113042080EC089500240A94161617061806090687
S1130430089500240A941216130614060506089556
S1130440092E0394000C11F4882352F0BB0F40F4DE
S1130450BF2B11F460FF04C06F5F7F4F8F4F9F4F1E
S10904600895F894FFCF9B
S9030000FC
