S01A0000726F73696C5F7765656B30385F68775F494F2E7372656339
S113000045C0000060C000005FC000005CC000008C
S11300105AC0000058C0000056C0000054C0000080
S113002052C0000050C000004EC000004CC0000090
S11300304AC0000048C0000046C0000044C00000A0
S113004042C0000040C000003EC000003CC00000B0
S11300503AC0000038C0000036C0000034C00000C0
S113006032C0000030C000002EC000002CC00000D0
S11300702AC0000028C0000026C0000024C00000E0
S113008022C0000020C000001EC0000011241FBEBA
S1130090CFEFD0E1DEBFCDBF11E0A0E0B1E0E8E9F1
S11300A0F1E000E00BBF02C007900D92A230B1074F
S11300B0D9F721E0A2E0B1E001C01D92A430B2075B
S11300C0E1F724D067C09CCF1F920F920FB60F9216
S11300D011248F939F9380910001909101018038A6
S11300E0910539F481E090E090930101809300013F
S11300F006C0880F991F90930101809300019F917E
S11301008F910F900FBE0F901F9018958FEF8ABBA1
S113011011BA88E080936A0082E089BF789480995C
S113012021C08091020190910301892BD9F481E0CF
S113013090E09093030180930201809100019091DB
S113014001018038910539F481E090E09093010138
S11301508093000111C0880F991F9093010180932F
S113016000010AC08091020190910301019721F4DA
S113017010920301109202018091000180958BBBC3
S11301802FEF84E39CE0215080409040E1F700C0D1
S10B01900000C5CFF894FFCF75
S1050198010060
S9030000FC
