S01C0000726F73696C335F687731305F4469676974697A652E7372656375
S113000086C0000094C0000092C0000090C00000B0
S11300108EC000008CC000008AC0000088C00000B0
S113002086C0000084C00000DEC1000080C0000063
S11300307EC000007CC000007AC0000078C00000D0
S113004076C0000074C0000072C0000070C00000E0
S11300506EC000006CC000006AC0000068C00000F0
S113006066C0000064C0000062C0000060C0000000
S11300705EC000005CC000005AC0000058C0000010
S113008056C0000054C0000052C000000800000028
S1130090BE922449123EABAAAA2ABECDCCCC4C3E79
S11300A000000080BEABAAAAAA3E00000000BF0068
S11300B00000803F0000000000084178D3BB438764
S11300C0D1133D190E3CC3BD4282AD2B3E68EC8278
S11300D076BED98FE1A93E4C80EFFFBE01C4FF7FFD
S11300E03F000000000007634236B79BD8A71A39C7
S11300F0685618AEBAAB558C1D3CB7CC5763BD6D72
S1130100EDFD753EF6177231BF000000803F1124EB
S11301101FBECFEFD0E1DEBFCDBF21E0A0E0B1E054
S113012001C01D92A631B207E1F717D13EC568CFD1
S1130130E1E6F0E080818E7F808380818D7F808303
S113014080818B7F80838081877F808381B38B7F55
S113015081BB81B3886081BB87B38F7787BB0895E8
S113016010929B0088E180939A0086E080939D0022
S113017088E08093990008958DE685BD80E487BF6B
S113018083E684BD089580E487B987E886B9089535
S1130190BC01990F880B990B87D220E030E040EA2C
S11301A05BE359D320E030E04AE754E454D360934E
S11301B0120170931301809314019093150141D29D
S11301C0CB010895FDC20895CF92DF92EF92FF9282
S11301D0BC01990F880B990B67D220E030E040EA0C
S11301E05BE339D320E030E04AE754E434D360934E
S11301F0120170931301809314019093150120E070
S113020030E04AE754E4B5D19B01AC0160E078E901
S113021087EB96E4AED120E030EE42E955E444D1D8
S113022060930E0170930F0180931001909311015C
S1130230C9DF6B017C0160E070E48CE197E4C2DF0C
S11302409B01AC01C701B6012FD12DEC3CEC4CE471
S11302505FE38FD19B01AC0160E070E080E89FE335
S113026023D19B01AC01609302017093030180933D
S113027004019093050160E070E080E291E44ED3C4
S1130280E0D1CB01FF90EF90DF90CF900895BC01B7
S1130290990F880B990B08D220E030E040EA5BE329
S11302A0DAD220E030E04AE754E4D5D26093120178
S11302B070931301809314019093150120E030E0B2
S11302C040E251E456D1BDD1CB010895BC01990F50
S11302D0880B990BE9D120E030E040EA5BE3BBD224
S11302E020E030E04AE754E4B6D260931201709300
S11302F01301809314019093150120E030E04AE744
S113030054E437D19B01AC0160E078E987EB96E4D3
S113031030D120E030EE42E955E4C6D020E030E0B0
S11303204AE754E426D14EDF2BEF33EA4FE859E392
S113033092D22FE03FEC4BE55BE3B7D09B01AC01DD
S113034060E070E080E89FE314D123E333E948E8F8
S113035053E4AAD076D1CB010895EADE01DF0CDFA5
S113036012DF7894FFCF97B1907E892B87B986B13D
S11303708F7E86B986B1806486B9349BFECF84B102
S113038095B1089590919B0095FFFCCF80939C00BC
S11303900895EF92FF920F931F93CF93DF93EC0195
S11303A099232CF48DE2EEDFD195C195D10908EEA5
S11303B013E00FC0CE01B801D1D3E82EF92E80E3AB
S11303C0860FE0DFCE2DDF2DC8016AE070E0C6D3D2
S11303D08B011016110674F3DF91CF911F910F91C9
S11303E0FF90EF9008951F920F920FB60F92112471
S11303F00BB60F922F933F934F935F936F937F931B
S11304008F939F93AF93BF93CF93DF93EF93FF9318
S1130410F894C0E0D0E00AC0CE01A5DFFE01EE0FE3
S1130420FF1FEA5FFE4F918380832196C430D1057C
S11304309CF3C6E0D1E088819981AADEAADF8CE230
S1130440A1DF8A819B81C0DEA4DF8CE29BDF8C81EB
S11304509D811DDF9EDF8CE295DF8E819F8136DFDB
S113046098DF8DE08FDF83E684BD80910001909159
S11304700101019690930101809300017894FF910A
S1130480EF91DF91CF91BF91AF919F918F917F9128
S11304906F915F914F913F912F910F900BBE0F90F1
S11304A00FBE0F901F9018955058BB27AA270ED047
S11304B04DC13ED130F043D120F031F49F3F11F4CF
S11304C01EF433C10EF4E095E7FB29C1E92F4FD1A7
S11304D080F3BA17620773078407950718F071F45D
S11304E09EF567C10EF4E0950B2EBA2FA02D0B01DB
S11304F0B90190010C01CA01A0011124FF27591B65
S113050099F0593F50F4503E68F11A16F040A22F6A
S1130510232F342F4427585FF3CF469537952795DB
S1130520A795F0405395C9F77EF41F16BA0B620BDA
S1130530730B840BBAF09150A1F0FF0FBB1F661F21
S1130540771F881FC2F70EC0BA0F621F731F841F64
S113055048F4879577956795B795F7959E3F08F08A
S1130560B3CF9395880F08F09927EE0F9795879549
S113057008950CD0EBC0E3D040F0DAD030F021F491
S11305805F3F19F0CCC0511115C1CFC0F0D098F322
S11305909923C9F35523B1F3951B550BBB27AA2700
S11305A062177307840738F09F5F5F4F220F331F72
S11305B0441FAA1FA9F333D00E2E3AF0E0E830D03E
S11305C091505040E695001CCAF729D0FE2F27D041
S11305D0660F771F881FBB1F261737074807AB070F
S11305E0B0E809F0BB0B802DBF01FF2793585F4F84
S11305F02AF09E3F510568F092C0DCC05F3FECF3E7
S1130600983EDCF3869577956795B795F7959F5F48
S1130610C9F7880F911D9695879597F90895E1E09C
S1130620660F771F881FBB1F621773078407BA07FB
S113063020F0621B730B840BBA0BEE1F88F7E09556
S1130640089504D06894B111B5C0089598D088F085
S11306509F5790F0B92F9927B751A0F0D1F0660FAA
S1130660771F881F991F1AF0BA95C9F712C0B130C5
S113067081F09FD0B1E008959CC0672F782F882720
S1130680B85F39F0B93FCCF3869577956795B39504
S1130690D9F73EF490958095709561957F4F8F4F73
S11306A09F4F0895E89409C097FB3EF49095809578
S11306B0709561957F4F8F4F9F4F9923A9F0F92F24
S11306C096E9BB279395F695879577956795B795A2
S11306D0F111F8CFFAF4BB0F11F460FF1BC06F5F88
S11306E07F4F8F4F9F4F16C0882311F096E911C09A
S11306F0772321F09EE8872F762F05C0662371F0BB
S113070096E8862F70E060E02AF09A95660F771FCE
S1130710881FDAF7880F9695879597F9089597F9C2
S11307209F6780E870E060E008959FEF80EC089593
S113073000240A94161617061806090608950024BC
S11307400A9412161306140605060895092E039436
S1130750000C11F4882352F0BB0F40F4BF2B11F4AA
S113076060FF04C06F5F7F4F8F4F9F4F089557FD09
S11307709058440F551F59F05F3F71F04795880F0B
S113078097FB991F61F09F3F79F0879508951216A2
S113079013061406551FF2CF4695F1DF08C016164E
S11307A017061806991FF1CF8695710561050894FF
S11307B00895E894BB2766277727CB0197F9089516
S11307C00AD029ED3BE54EED5EE345C00EF023C1B2
S11307D0ACCF6894A4CFD3DFC8F39923D1F3C6F385
S11307E0DF93CF931F930F93FF92C92FDD278823A5
S11307F02AF02197660F771F881FDAF720E030E090
S113080040E85FEB9FE3883920F0803E30F021968A
S11308108F774BDEECE8F0E003C047DEE9EBF0E075
S113082008D18B01BE01EC01FB2E6F577109759540
S1130830771F880B990B38DF28E132E741E35FE348
S113084016D0AF2D9801AE01FF900F911F91CF915B
S1130850DF913CDE7BCF0BD079CF6ADF28F06FDFEE
S113086018F0952309F05BCF60CF1124A3CF7FDF6D
S1130870A0F3959FD1F3950F50E0551F629FF001AF
S1130880729FBB27F00DB11D639FAA27F00DB11D08
S1130890AA1F649F6627B00DA11D661F829F222791
S11308A0B00DA11D621F739FB00DA11D621F839F18
S11308B0A00D611D221F749F3327A00D611D231FEE
S11308C0849F600D211D822F762F6A2F11249F573C
S11308D050408AF0E1F088234AF0EE0FFF1FBB1F5F
S11308E0661F771F881F91505040A9F79E3F5105FE
S11308F070F015CF5FCF5F3FECF3983EDCF3869545
S113090077956795B795F795E7959F5FC1F7FE2BA8
S1130910880F911D9695879597F90895FA01EE0F22
S1130920FF1F30962105310599F16115710561F4B8
S11309308038BFE39B0749F168949038810561F0E2
S11309408038BFEF9B0741F0992342F5FF3FE10553
S11309503105210511F1E8940894E795D901AA23FA
S113096029F4AB2FBE2FF85FD0F310C0FF5F70F4F3
S1130970A695E0F7F73950F019F0FF3A38F49F776D
S11309809F930CD00F9007FC905808953EF0CDCE65
S113099060E070E080E89FE308954FE79F775F93FE
S11309A04F933F932F9317DF2F913F914F915F9177
S11309B052DF05C019F40EF0B2CEFBCEB6CEDFDEA8
S11309C0C8F39638C0F707F80F92E8942BE33AEA95
S11309D048EB5FE74EDF0F920F920F924DB75EB771
S11309E00F9289D0E6EEF0E024D04F915F91EF9121
S11309F0FF91E595EE1FFF1F49F0FE57E06844277D
S1130A00EE0F441FFA95E1F74195550B40D00F9036
S1130A1007FE34C008959F3F31F0915020F487952C
S1130A2077956795B795880F911D9695879597F952
S1130A300895DF93CF931F930F93FF92EF92DF926A
S1130A407B018C01689405C0DA2EEF0110DFFE01F2
S1130A50E894A5912591359145915591AEF3EF0117
S1130A6035DDFE019701A801DA9479F7DF90EF9064
S1130A70FF900F911F91CF91DF9108959B01AC01DD
S1130A8060E070E080E89FE374CD49CEC4CF77DEA8
S1130A90E8F39923D9F3940F511DBBF391505040BF
S1130AA094F059F0882332F0660F771F881F915015
S1130AB05040C1F79E3F510544F7880F911D96950C
S1130AC0879597F908955F3FACF0983E9CF0BB275B
S1130AD0869577956795B79508F4B1609395C1F7B6
S1130AE0BB0F58F711F460FFE8CF6F5F7F4F8F4F54
S1130AF09F4FE3CF5FCEFA01DC01AA0FBB1F9B011E
S1130B00AC01BF5728F422273327442750781FC04D
S1130B10B75188F4AB2F0024469537952795011CCF
S1130B20A395D2F3002069F0220F331F441FB3951D
S1130B30DAF30DD0B9CC61307105A0E88A07B94663
S1130B4030F49B01AC01662777278827907830968C
S1130B5021F02083318342835383089597FB072E2A
S1130B6016F4009406D077FD08D00BD007FC05D00E
S1130B703EF4909581959F4F0895709561957F4FB0
S1130B800895AA1BBB1B51E107C0AA1FBB1FA617D0
S1130B90B70710F0A61BB70B881F991F5A95A9F722
S1110BA080959095BC01CD010895F894FFCF87
S9030000FC
