S0170000726F73696C335F687730395F4144432E73726563E3
S113000045C0000053C0000051C000004FC00000B4
S11300104DC000004BC0000049C0000047C00000B4
S113002045C0000043C00000B8C000003FC000004D
S11300303DC000003BC0000039C0000037C00000D4
S113004035C0000033C0000031C000002FC00000E4
S11300502DC000002BC0000029C0000027C00000F4
S113006025C0000023C0000021C000001FC0000004
S11300701DC000001BC0000019C0000017C0000014
S113008015C0000013C0000011C0000011241FBEE1
S1130090CFEFD0E1DEBFCDBF21E0A0E0B1E001C0F1
S11300A01D92AA30B207E1F732D005C1A9CFE1E62B
S11300B0F0E080818E7F808380818D7F808380814A
S11300C08B7F80838081877F808381B38B7F81BB9B
S11300D081B3886081BB87B38F7787BB0895109203
S11300E09B0088E180939A0086E080939D0088E0DD
S11300F08093990008958DE685BD80E487BF83E6EB
S113010084BD089580E487B987E886B90895CFDF70
S1130110E6DFF1DFF7DF7894FFCF97B1907E892B8C
S113012087B986B18F7E86B986B1806486B9349BDF
S1130130FECF84B195B1089590919B0095FFFCCFBB
S113014080939C000895EF92FF920F931F93CF9397
S1130150DF93EC0199232CF48DE2EEDFD195C19568
S1130160D10908EE13E00FC0CE01B8017DD0E82E0E
S1130170F92E80E3860FE0DFCE2DDF2DC8016AE083
S113018070E072D08B011016110674F3DF91CF91D9
S11301901F910F91FF90EF9008951F920F920FB649
S11301A00F9211240BB60F922F933F934F935F93AB
S11301B06F937F938F939F93AF93BF93CF93DF936B
S11301C0EF93FF93F894C0E0D0E00AC0CE01A5DF1E
S11301D0FE01EE0FFF1FEE5FFE4F91838083219699
S11301E0C430D1059CF380910001909101010B97DB
S11301F068F419C0FE01EE0FFF1FEE5FFE4F808111
S11302009181A1DF80E298DF219602C0C0E0D0E0B6
S1130210C430D1057CF38AE08FDF8DE08DDF10924E
S113022001011092000183E684BD80910001909148
S11302300101019690930101809300017894FF914C
S1130240EF91DF91CF91BF91AF919F918F917F916A
S11302506F915F914F913F912F910F900BBE0F9033
S11302600FBE0F901F90189597FB072E16F400945D
S113027006D077FD08D00BD007FC05D03EF490954E
S113028081959F4F0895709561957F4F0895AA1B9E
S1130290BB1B51E107C0AA1FBB1FA617B70710F06D
S11302A0A61BB70B881F991F5A95A9F7809590959F
S10D02B0BC01CD010895F894FFCFBE
S9030000FC
