S01E0000726F73696C335F7765656B31315F68775F55534152542E7372656311
S113000045C000004BC0000049C0000047C00000CC
S113001045C0000043C0000041C000003FC00000D4
S11300203DC000003BC0000039C0000037C00000E4
S113003035C0000033C0000031C000002FC00000F4
S11300402DC000002BC0000029C0000027C0000004
S113005025C0000023C0000021C000001FC0000014
S11300601DC000001BC0000019C0000017C0000024
S113007015C0000013C0000011C000000FC0000034
S11300800DC000000BC0000009C0000011241FBEF9
S1130090CFEFD0E1DEBFCDBF35D08DC0B1CF9091D1
S11300A09B0095FFFCCF80939C000895EF92FF92F4
S11300B00F931F93CF93DF93EC0199232CF48DE2DC
S11300C0EEDFD195C195D10900E117E20FC0CE0151
S11300D0B8014AD0E82EF92E80E3860FE0DFCE2D5A
S11300E0DF2DC8016AE070E03FD08B0110161106C5
S11300F074F380E2D4DFDF91CF911F910F91FF90D1
S1130100EF90089588E081BB10929B0088E1809372
S11301109A0086E080939D0087E68093990089E3A6
S113012090E3C4DF2FEF83ED90E3215080409040B3
S1130130E1F700C000008CEF9DEFB8DF2FEF83EDF7
S113014090E3215080409040E1F700C000008EEF22
S11301509FEFACDF2FEF83ED90E321508040904080
S1130160E1F700C00000FFCF97FB072E16F40094C0
S113017006D077FD08D00BD007FC05D03EF490954F
S113018081959F4F0895709561957F4F0895AA1B9F
S1130190BB1B51E107C0AA1FBB1FA617B70710F06E
S11301A0A61BB70B881F991F5A95A9F780959095A0
S10D01B0BC01CD010895F894FFCFBF
S9030000FC
